{
  "_format": "hh-sol-artifact-1",
  "contractName": "ArtGallery",
  "sourceName": "contracts/ArtGallery.sol",
  "abi": [
    {
      "inputs": [],
      "stateMutability": "nonpayable",
      "type": "constructor"
    },
    {
      "anonymous": false,
      "inputs": [
        {
          "indexed": true,
          "internalType": "address",
          "name": "owner",
          "type": "address"
        },
        {
          "indexed": true,
          "internalType": "address",
          "name": "approved",
          "type": "address"
        },
        {
          "indexed": true,
          "internalType": "uint256",
          "name": "tokenId",
          "type": "uint256"
        }
      ],
      "name": "Approval",
      "type": "event"
    },
    {
      "anonymous": false,
      "inputs": [
        {
          "indexed": true,
          "internalType": "address",
          "name": "owner",
          "type": "address"
        },
        {
          "indexed": true,
          "internalType": "address",
          "name": "operator",
          "type": "address"
        },
        {
          "indexed": false,
          "internalType": "bool",
          "name": "approved",
          "type": "bool"
        }
      ],
      "name": "ApprovalForAll",
      "type": "event"
    },
    {
      "anonymous": false,
      "inputs": [
        {
          "indexed": true,
          "internalType": "address",
          "name": "previousOwner",
          "type": "address"
        },
        {
          "indexed": true,
          "internalType": "address",
          "name": "newOwner",
          "type": "address"
        }
      ],
      "name": "OwnershipTransferred",
      "type": "event"
    },
    {
      "anonymous": false,
      "inputs": [
        {
          "indexed": true,
          "internalType": "address",
          "name": "from",
          "type": "address"
        },
        {
          "indexed": true,
          "internalType": "address",
          "name": "to",
          "type": "address"
        },
        {
          "indexed": true,
          "internalType": "uint256",
          "name": "tokenId",
          "type": "uint256"
        }
      ],
      "name": "Transfer",
      "type": "event"
    },
    {
      "inputs": [
        {
          "internalType": "address",
          "name": "to",
          "type": "address"
        },
        {
          "internalType": "uint256",
          "name": "tokenId",
          "type": "uint256"
        }
      ],
      "name": "approve",
      "outputs": [],
      "stateMutability": "nonpayable",
      "type": "function"
    },
    {
      "inputs": [
        {
          "internalType": "address",
          "name": "owner",
          "type": "address"
        }
      ],
      "name": "balanceOf",
      "outputs": [
        {
          "internalType": "uint256",
          "name": "",
          "type": "uint256"
        }
      ],
      "stateMutability": "view",
      "type": "function"
    },
    {
      "inputs": [
        {
          "internalType": "uint256",
          "name": "tokenId",
          "type": "uint256"
        }
      ],
      "name": "getApproved",
      "outputs": [
        {
          "internalType": "address",
          "name": "",
          "type": "address"
        }
      ],
      "stateMutability": "view",
      "type": "function"
    },
    {
      "inputs": [
        {
          "internalType": "uint256",
          "name": "tokenId",
          "type": "uint256"
        }
      ],
      "name": "getArtwork",
      "outputs": [
        {
          "internalType": "string",
          "name": "ipfsHash",
          "type": "string"
        },
        {
          "internalType": "string",
          "name": "title",
          "type": "string"
        },
        {
          "internalType": "string",
          "name": "description",
          "type": "string"
        },
        {
          "internalType": "address",
          "name": "owner",
          "type": "address"
        }
      ],
      "stateMutability": "view",
      "type": "function"
    },
    {
      "inputs": [
        {
          "internalType": "address",
          "name": "owner",
          "type": "address"
        },
        {
          "internalType": "address",
          "name": "operator",
          "type": "address"
        }
      ],
      "name": "isApprovedForAll",
      "outputs": [
        {
          "internalType": "bool",
          "name": "",
          "type": "bool"
        }
      ],
      "stateMutability": "view",
      "type": "function"
    },
    {
      "inputs": [
        {
          "internalType": "string",
          "name": "ipfsHash",
          "type": "string"
        },
        {
          "internalType": "string",
          "name": "title",
          "type": "string"
        },
        {
          "internalType": "string",
          "name": "description",
          "type": "string"
        }
      ],
      "name": "mintArtwork",
      "outputs": [
        {
          "internalType": "uint256",
          "name": "",
          "type": "uint256"
        }
      ],
      "stateMutability": "nonpayable",
      "type": "function"
    },
    {
      "inputs": [],
      "name": "name",
      "outputs": [
        {
          "internalType": "string",
          "name": "",
          "type": "string"
        }
      ],
      "stateMutability": "view",
      "type": "function"
    },
    {
      "inputs": [],
      "name": "owner",
      "outputs": [
        {
          "internalType": "address",
          "name": "",
          "type": "address"
        }
      ],
      "stateMutability": "view",
      "type": "function"
    },
    {
      "inputs": [
        {
          "internalType": "uint256",
          "name": "tokenId",
          "type": "uint256"
        }
      ],
      "name": "ownerOf",
      "outputs": [
        {
          "internalType": "address",
          "name": "",
          "type": "address"
        }
      ],
      "stateMutability": "view",
      "type": "function"
    },
    {
      "inputs": [],
      "name": "renounceOwnership",
      "outputs": [],
      "stateMutability": "nonpayable",
      "type": "function"
    },
    {
      "inputs": [
        {
          "internalType": "address",
          "name": "from",
          "type": "address"
        },
        {
          "internalType": "address",
          "name": "to",
          "type": "address"
        },
        {
          "internalType": "uint256",
          "name": "tokenId",
          "type": "uint256"
        }
      ],
      "name": "safeTransferFrom",
      "outputs": [],
      "stateMutability": "nonpayable",
      "type": "function"
    },
    {
      "inputs": [
        {
          "internalType": "address",
          "name": "from",
          "type": "address"
        },
        {
          "internalType": "address",
          "name": "to",
          "type": "address"
        },
        {
          "internalType": "uint256",
          "name": "tokenId",
          "type": "uint256"
        },
        {
          "internalType": "bytes",
          "name": "data",
          "type": "bytes"
        }
      ],
      "name": "safeTransferFrom",
      "outputs": [],
      "stateMutability": "nonpayable",
      "type": "function"
    },
    {
      "inputs": [
        {
          "internalType": "address",
          "name": "operator",
          "type": "address"
        },
        {
          "internalType": "bool",
          "name": "approved",
          "type": "bool"
        }
      ],
      "name": "setApprovalForAll",
      "outputs": [],
      "stateMutability": "nonpayable",
      "type": "function"
    },
    {
      "inputs": [
        {
          "internalType": "bytes4",
          "name": "interfaceId",
          "type": "bytes4"
        }
      ],
      "name": "supportsInterface",
      "outputs": [
        {
          "internalType": "bool",
          "name": "",
          "type": "bool"
        }
      ],
      "stateMutability": "view",
      "type": "function"
    },
    {
      "inputs": [],
      "name": "symbol",
      "outputs": [
        {
          "internalType": "string",
          "name": "",
          "type": "string"
        }
      ],
      "stateMutability": "view",
      "type": "function"
    },
    {
      "inputs": [
        {
          "internalType": "uint256",
          "name": "tokenId",
          "type": "uint256"
        }
      ],
      "name": "tokenURI",
      "outputs": [
        {
          "internalType": "string",
          "name": "",
          "type": "string"
        }
      ],
      "stateMutability": "view",
      "type": "function"
    },
    {
      "inputs": [],
      "name": "totalSupply",
      "outputs": [
        {
          "internalType": "uint256",
          "name": "",
          "type": "uint256"
        }
      ],
      "stateMutability": "view",
      "type": "function"
    },
    {
      "inputs": [
        {
          "internalType": "address",
          "name": "from",
          "type": "address"
        },
        {
          "internalType": "address",
          "name": "to",
          "type": "address"
        },
        {
          "internalType": "uint256",
          "name": "tokenId",
          "type": "uint256"
        }
      ],
      "name": "transferFrom",
      "outputs": [],
      "stateMutability": "nonpayable",
      "type": "function"
    },
    {
      "inputs": [
        {
          "internalType": "address",
          "name": "newOwner",
          "type": "address"
        }
      ],
      "name": "transferOwnership",
      "outputs": [],
      "stateMutability": "nonpayable",
      "type": "function"
    }
  ],
  "bytecode": "0x608060405234801561001057600080fd5b506040518060400160405280600781526020017f4d757365417274000000000000000000000000000000000000000000000000008152506040518060400160405280600481526020017f4d55534500000000000000000000000000000000000000000000000000000000815250816000908161008c91906103de565b50806001908161009c91906103de565b5050506100bb6100b06100c060201b60201c565b6100c860201b60201c565b6104b0565b600033905090565b6000600660009054906101000a900473ffffffffffffffffffffffffffffffffffffffff16905081600660006101000a81548173ffffffffffffffffffffffffffffffffffffffff021916908373ffffffffffffffffffffffffffffffffffffffff1602179055508173ffffffffffffffffffffffffffffffffffffffff168173ffffffffffffffffffffffffffffffffffffffff167f8be0079c531659141344cd1fd0a4f28419497f9722a3daafe3b4186f6b6457e060405160405180910390a35050565b600081519050919050565b7f4e487b7100000000000000000000000000000000000000000000000000000000600052604160045260246000fd5b7f4e487b7100000000000000000000000000000000000000000000000000000000600052602260045260246000fd5b6000600282049050600182168061020f57607f821691505b602082108103610222576102216101c8565b5b50919050565b60008190508160005260206000209050919050565b60006020601f8301049050919050565b600082821b905092915050565b60006008830261028a7fffffffffffffffffffffffffffffffffffffffffffffffffffffffffffffffff8261024d565b610294868361024d565b95508019841693508086168417925050509392505050565b6000819050919050565b6000819050919050565b60006102db6102d66102d1846102ac565b6102b6565b6102ac565b9050919050565b6000819050919050565b6102f5836102c0565b610309610301826102e2565b84845461025a565b825550505050565b600090565b61031e610311565b6103298184846102ec565b505050565b5b8181101561034d57610342600082610316565b60018101905061032f565b5050565b601f8211156103925761036381610228565b61036c8461023d565b8101602085101561037b578190505b61038f6103878561023d565b83018261032e565b50505b505050565b600082821c905092915050565b60006103b560001984600802610397565b1980831691505092915050565b60006103ce83836103a4565b9150826002028217905092915050565b6103e78261018e565b67ffffffffffffffff811115610400576103ff610199565b5b61040a82546101f7565b610415828285610351565b600060209050601f8311600181146104485760008415610436578287015190505b61044085826103c2565b8655506104a8565b601f19841661045686610228565b60005b8281101561047e57848901518255600182019150602085019450602081019050610459565b8683101561049b5784890151610497601f8916826103a4565b8355505b6001600288020188555050505b505050505050565b612ee9806104bf6000396000f3fe608060405234801561001057600080fd5b50600436106101215760003560e01c80636352211e116100ad578063a22cb46511610071578063a22cb4651461031f578063b88d4fde1461033b578063c87b56dd14610357578063e985e9c514610387578063f2fde38b146103b757610121565b80636352211e1461027957806370a08231146102a9578063715018a6146102d95780638da5cb5b146102e357806395d89b411461030157610121565b8063167ddf6e116100f4578063167ddf6e146101c057806318160ddd146101f357806323b872dd146102115780632a627ff91461022d57806342842e0e1461025d57610121565b806301ffc9a71461012657806306fdde0314610156578063081812fc14610174578063095ea7b3146101a4575b600080fd5b610140600480360381019061013b9190611bee565b6103d3565b60405161014d9190611c36565b60405180910390f35b61015e6104b5565b60405161016b9190611ce1565b60405180910390f35b61018e60048036038101906101899190611d39565b610547565b60405161019b9190611da7565b60405180910390f35b6101be60048036038101906101b99190611dee565b61058d565b005b6101da60048036038101906101d59190611d39565b6106a4565b6040516101ea9493929190611e2e565b60405180910390f35b6101fb610945565b6040516102089190611e97565b60405180910390f35b61022b60048036038101906102269190611eb2565b610956565b005b6102476004803603810190610242919061203a565b6109b6565b6040516102549190611e97565b60405180910390f35b61027760048036038101906102729190611eb2565b610abb565b005b610293600480360381019061028e9190611d39565b610adb565b6040516102a09190611da7565b60405180910390f35b6102c360048036038101906102be91906120e1565b610b61565b6040516102d09190611e97565b60405180910390f35b6102e1610c18565b005b6102eb610c2c565b6040516102f89190611da7565b60405180910390f35b610309610c56565b6040516103169190611ce1565b60405180910390f35b6103396004803603810190610334919061213a565b610ce8565b005b6103556004803603810190610350919061221b565b610cfe565b005b610371600480360381019061036c9190611d39565b610d60565b60405161037e9190611ce1565b60405180910390f35b6103a1600480360381019061039c919061229e565b610de6565b6040516103ae9190611c36565b60405180910390f35b6103d160048036038101906103cc91906120e1565b610e7a565b005b60007f80ac58cd000000000000000000000000000000000000000000000000000000007bffffffffffffffffffffffffffffffffffffffffffffffffffffffff1916827bffffffffffffffffffffffffffffffffffffffffffffffffffffffff1916148061049e57507f5b5e139f000000000000000000000000000000000000000000000000000000007bffffffffffffffffffffffffffffffffffffffffffffffffffffffff1916827bffffffffffffffffffffffffffffffffffffffffffffffffffffffff1916145b806104ae57506104ad82610efd565b5b9050919050565b6060600080546104c49061230d565b80601f01602080910402602001604051908101604052809291908181526020018280546104f09061230d565b801561053d5780601f106105125761010080835404028352916020019161053d565b820191906000526020600020905b81548152906001019060200180831161052057829003601f168201915b5050505050905090565b600061055282610f67565b6004600083815260200190815260200160002060009054906101000a900473ffffffffffffffffffffffffffffffffffffffff169050919050565b600061059882610adb565b90508073ffffffffffffffffffffffffffffffffffffffff168373ffffffffffffffffffffffffffffffffffffffff1603610608576040517f08c379a00000000000000000000000000000000000000000000000000000000081526004016105ff906123b0565b60405180910390fd5b8073ffffffffffffffffffffffffffffffffffffffff16610627610fb2565b73ffffffffffffffffffffffffffffffffffffffff161480610656575061065581610650610fb2565b610de6565b5b610695576040517f08c379a000000000000000000000000000000000000000000000000000000000815260040161068c90612442565b60405180910390fd5b61069f8383610fba565b505050565b606080606060006106b485611073565b6106f3576040517f08c379a00000000000000000000000000000000000000000000000000000000081526004016106ea906124ae565b60405180910390fd5b6000600860008781526020019081526020016000206040518060800160405290816000820180546107239061230d565b80601f016020809104026020016040519081016040528092919081815260200182805461074f9061230d565b801561079c5780601f106107715761010080835404028352916020019161079c565b820191906000526020600020905b81548152906001019060200180831161077f57829003601f168201915b505050505081526020016001820180546107b59061230d565b80601f01602080910402602001604051908101604052809291908181526020018280546107e19061230d565b801561082e5780601f106108035761010080835404028352916020019161082e565b820191906000526020600020905b81548152906001019060200180831161081157829003601f168201915b505050505081526020016002820180546108479061230d565b80601f01602080910402602001604051908101604052809291908181526020018280546108739061230d565b80156108c05780601f10610895576101008083540402835291602001916108c0565b820191906000526020600020905b8154815290600101906020018083116108a357829003601f168201915b505050505081526020016003820160009054906101000a900473ffffffffffffffffffffffffffffffffffffffff1673ffffffffffffffffffffffffffffffffffffffff1673ffffffffffffffffffffffffffffffffffffffff1681525050905080600001518160200151826040015183606001519450945094509450509193509193565b600061095160076110b4565b905090565b610967610961610fb2565b826110c2565b6109a6576040517f08c379a000000000000000000000000000000000000000000000000000000000815260040161099d90612540565b60405180910390fd5b6109b1838383611157565b505050565b60006109c26007611450565b60006109ce60076110b4565b90506109da3382611466565b60405180608001604052808681526020018581526020018481526020013373ffffffffffffffffffffffffffffffffffffffff16815250600860008381526020019081526020016000206000820151816000019081610a39919061270c565b506020820151816001019081610a4f919061270c565b506040820151816002019081610a65919061270c565b5060608201518160030160006101000a81548173ffffffffffffffffffffffffffffffffffffffff021916908373ffffffffffffffffffffffffffffffffffffffff160217905550905050809150509392505050565b610ad683838360405180602001604052806000815250610cfe565b505050565b600080610ae783611683565b9050600073ffffffffffffffffffffffffffffffffffffffff168173ffffffffffffffffffffffffffffffffffffffff1603610b58576040517f08c379a0000000000000000000000000000000000000000000000000000000008152600401610b4f9061282a565b60405180910390fd5b80915050919050565b60008073ffffffffffffffffffffffffffffffffffffffff168273ffffffffffffffffffffffffffffffffffffffff1603610bd1576040517f08c379a0000000000000000000000000000000000000000000000000000000008152600401610bc8906128bc565b60405180910390fd5b600360008373ffffffffffffffffffffffffffffffffffffffff1673ffffffffffffffffffffffffffffffffffffffff168152602001908152602001600020549050919050565b610c206116c0565b610c2a600061173e565b565b6000600660009054906101000a900473ffffffffffffffffffffffffffffffffffffffff16905090565b606060018054610c659061230d565b80601f0160208091040260200160405190810160405280929190818152602001828054610c919061230d565b8015610cde5780601f10610cb357610100808354040283529160200191610cde565b820191906000526020600020905b815481529060010190602001808311610cc157829003601f168201915b5050505050905090565b610cfa610cf3610fb2565b8383611804565b5050565b610d0f610d09610fb2565b836110c2565b610d4e576040517f08c379a0000000000000000000000000000000000000000000000000000000008152600401610d4590612540565b60405180910390fd5b610d5a84848484611970565b50505050565b6060610d6b82611073565b610daa576040517f08c379a0000000000000000000000000000000000000000000000000000000008152600401610da1906124ae565b60405180910390fd5b60086000838152602001908152602001600020600001604051602001610dd091906129b6565b6040516020818303038152906040529050919050565b6000600560008473ffffffffffffffffffffffffffffffffffffffff1673ffffffffffffffffffffffffffffffffffffffff16815260200190815260200160002060008373ffffffffffffffffffffffffffffffffffffffff1673ffffffffffffffffffffffffffffffffffffffff16815260200190815260200160002060009054906101000a900460ff16905092915050565b610e826116c0565b600073ffffffffffffffffffffffffffffffffffffffff168173ffffffffffffffffffffffffffffffffffffffff1603610ef1576040517f08c379a0000000000000000000000000000000000000000000000000000000008152600401610ee890612a4a565b60405180910390fd5b610efa8161173e565b50565b60007f01ffc9a7000000000000000000000000000000000000000000000000000000007bffffffffffffffffffffffffffffffffffffffffffffffffffffffff1916827bffffffffffffffffffffffffffffffffffffffffffffffffffffffff1916149050919050565b610f7081611073565b610faf576040517f08c379a0000000000000000000000000000000000000000000000000000000008152600401610fa69061282a565b60405180910390fd5b50565b600033905090565b816004600083815260200190815260200160002060006101000a81548173ffffffffffffffffffffffffffffffffffffffff021916908373ffffffffffffffffffffffffffffffffffffffff160217905550808273ffffffffffffffffffffffffffffffffffffffff1661102d83610adb565b73ffffffffffffffffffffffffffffffffffffffff167f8c5be1e5ebec7d5bd14f71427d1e84f3dd0314c0f7b2291e5b200ac8c7c3b92560405160405180910390a45050565b60008073ffffffffffffffffffffffffffffffffffffffff1661109583611683565b73ffffffffffffffffffffffffffffffffffffffff1614159050919050565b600081600001549050919050565b6000806110ce83610adb565b90508073ffffffffffffffffffffffffffffffffffffffff168473ffffffffffffffffffffffffffffffffffffffff161480611110575061110f8185610de6565b5b8061114e57508373ffffffffffffffffffffffffffffffffffffffff1661113684610547565b73ffffffffffffffffffffffffffffffffffffffff16145b91505092915050565b8273ffffffffffffffffffffffffffffffffffffffff1661117782610adb565b73ffffffffffffffffffffffffffffffffffffffff16146111cd576040517f08c379a00000000000000000000000000000000000000000000000000000000081526004016111c490612adc565b60405180910390fd5b600073ffffffffffffffffffffffffffffffffffffffff168273ffffffffffffffffffffffffffffffffffffffff160361123c576040517f08c379a000000000000000000000000000000000000000000000000000000000815260040161123390612b6e565b60405180910390fd5b61124983838360016119cc565b8273ffffffffffffffffffffffffffffffffffffffff1661126982610adb565b73ffffffffffffffffffffffffffffffffffffffff16146112bf576040517f08c379a00000000000000000000000000000000000000000000000000000000081526004016112b690612adc565b60405180910390fd5b6004600082815260200190815260200160002060006101000a81549073ffffffffffffffffffffffffffffffffffffffff02191690556001600360008573ffffffffffffffffffffffffffffffffffffffff1673ffffffffffffffffffffffffffffffffffffffff168152602001908152602001600020600082825403925050819055506001600360008473ffffffffffffffffffffffffffffffffffffffff1673ffffffffffffffffffffffffffffffffffffffff16815260200190815260200160002060008282540192505081905550816002600083815260200190815260200160002060006101000a81548173ffffffffffffffffffffffffffffffffffffffff021916908373ffffffffffffffffffffffffffffffffffffffff160217905550808273ffffffffffffffffffffffffffffffffffffffff168473ffffffffffffffffffffffffffffffffffffffff167fddf252ad1be2c89b69c2b068fc378daa952ba7f163c4a11628f55a4df523b3ef60405160405180910390a461144b83838360016119d2565b505050565b6001816000016000828254019250508190555050565b600073ffffffffffffffffffffffffffffffffffffffff168273ffffffffffffffffffffffffffffffffffffffff16036114d5576040517f08c379a00000000000000000000000000000000000000000000000000000000081526004016114cc90612bda565b60405180910390fd5b6114de81611073565b1561151e576040517f08c379a000000000000000000000000000000000000000000000000000000000815260040161151590612c46565b60405180910390fd5b61152c6000838360016119cc565b61153581611073565b15611575576040517f08c379a000000000000000000000000000000000000000000000000000000000815260040161156c90612c46565b60405180910390fd5b6001600360008473ffffffffffffffffffffffffffffffffffffffff1673ffffffffffffffffffffffffffffffffffffffff16815260200190815260200160002060008282540192505081905550816002600083815260200190815260200160002060006101000a81548173ffffffffffffffffffffffffffffffffffffffff021916908373ffffffffffffffffffffffffffffffffffffffff160217905550808273ffffffffffffffffffffffffffffffffffffffff16600073ffffffffffffffffffffffffffffffffffffffff167fddf252ad1be2c89b69c2b068fc378daa952ba7f163c4a11628f55a4df523b3ef60405160405180910390a461167f6000838360016119d2565b5050565b60006002600083815260200190815260200160002060009054906101000a900473ffffffffffffffffffffffffffffffffffffffff169050919050565b6116c8610fb2565b73ffffffffffffffffffffffffffffffffffffffff166116e6610c2c565b73ffffffffffffffffffffffffffffffffffffffff161461173c576040517f08c379a000000000000000000000000000000000000000000000000000000000815260040161173390612cb2565b60405180910390fd5b565b6000600660009054906101000a900473ffffffffffffffffffffffffffffffffffffffff16905081600660006101000a81548173ffffffffffffffffffffffffffffffffffffffff021916908373ffffffffffffffffffffffffffffffffffffffff1602179055508173ffffffffffffffffffffffffffffffffffffffff168173ffffffffffffffffffffffffffffffffffffffff167f8be0079c531659141344cd1fd0a4f28419497f9722a3daafe3b4186f6b6457e060405160405180910390a35050565b8173ffffffffffffffffffffffffffffffffffffffff168373ffffffffffffffffffffffffffffffffffffffff1603611872576040517f08c379a000000000000000000000000000000000000000000000000000000000815260040161186990612d1e565b60405180910390fd5b80600560008573ffffffffffffffffffffffffffffffffffffffff1673ffffffffffffffffffffffffffffffffffffffff16815260200190815260200160002060008473ffffffffffffffffffffffffffffffffffffffff1673ffffffffffffffffffffffffffffffffffffffff16815260200190815260200160002060006101000a81548160ff0219169083151502179055508173ffffffffffffffffffffffffffffffffffffffff168373ffffffffffffffffffffffffffffffffffffffff167f17307eab39ab6107e8899845ad3d59bd9653f200f220920489ca2b5937696c31836040516119639190611c36565b60405180910390a3505050565b61197b848484611157565b611987848484846119d8565b6119c6576040517f08c379a00000000000000000000000000000000000000000000000000000000081526004016119bd90612db0565b60405180910390fd5b50505050565b50505050565b50505050565b60006119f98473ffffffffffffffffffffffffffffffffffffffff16611b5f565b15611b52578373ffffffffffffffffffffffffffffffffffffffff1663150b7a02611a22610fb2565b8786866040518563ffffffff1660e01b8152600401611a449493929190612e25565b6020604051808303816000875af1925050508015611a8057506040513d601f19601f82011682018060405250810190611a7d9190612e86565b60015b611b02573d8060008114611ab0576040519150601f19603f3d011682016040523d82523d6000602084013e611ab5565b606091505b506000815103611afa576040517f08c379a0000000000000000000000000000000000000000000000000000000008152600401611af190612db0565b60405180910390fd5b805181602001fd5b63150b7a0260e01b7bffffffffffffffffffffffffffffffffffffffffffffffffffffffff1916817bffffffffffffffffffffffffffffffffffffffffffffffffffffffff191614915050611b57565b600190505b949350505050565b6000808273ffffffffffffffffffffffffffffffffffffffff163b119050919050565b6000604051905090565b600080fd5b600080fd5b60007fffffffff0000000000000000000000000000000000000000000000000000000082169050919050565b611bcb81611b96565b8114611bd657600080fd5b50565b600081359050611be881611bc2565b92915050565b600060208284031215611c0457611c03611b8c565b5b6000611c1284828501611bd9565b91505092915050565b60008115159050919050565b611c3081611c1b565b82525050565b6000602082019050611c4b6000830184611c27565b92915050565b600081519050919050565b600082825260208201905092915050565b60005b83811015611c8b578082015181840152602081019050611c70565b60008484015250505050565b6000601f19601f8301169050919050565b6000611cb382611c51565b611cbd8185611c5c565b9350611ccd818560208601611c6d565b611cd681611c97565b840191505092915050565b60006020820190508181036000830152611cfb8184611ca8565b905092915050565b6000819050919050565b611d1681611d03565b8114611d2157600080fd5b50565b600081359050611d3381611d0d565b92915050565b600060208284031215611d4f57611d4e611b8c565b5b6000611d5d84828501611d24565b91505092915050565b600073ffffffffffffffffffffffffffffffffffffffff82169050919050565b6000611d9182611d66565b9050919050565b611da181611d86565b82525050565b6000602082019050611dbc6000830184611d98565b92915050565b611dcb81611d86565b8114611dd657600080fd5b50565b600081359050611de881611dc2565b92915050565b60008060408385031215611e0557611e04611b8c565b5b6000611e1385828601611dd9565b9250506020611e2485828601611d24565b9150509250929050565b60006080820190508181036000830152611e488187611ca8565b90508181036020830152611e5c8186611ca8565b90508181036040830152611e708185611ca8565b9050611e7f6060830184611d98565b95945050505050565b611e9181611d03565b82525050565b6000602082019050611eac6000830184611e88565b92915050565b600080600060608486031215611ecb57611eca611b8c565b5b6000611ed986828701611dd9565b9350506020611eea86828701611dd9565b9250506040611efb86828701611d24565b9150509250925092565b600080fd5b600080fd5b7f4e487b7100000000000000000000000000000000000000000000000000000000600052604160045260246000fd5b611f4782611c97565b810181811067ffffffffffffffff82111715611f6657611f65611f0f565b5b80604052505050565b6000611f79611b82565b9050611f858282611f3e565b919050565b600067ffffffffffffffff821115611fa557611fa4611f0f565b5b611fae82611c97565b9050602081019050919050565b82818337600083830152505050565b6000611fdd611fd884611f8a565b611f6f565b905082815260208101848484011115611ff957611ff8611f0a565b5b612004848285611fbb565b509392505050565b600082601f83011261202157612020611f05565b5b8135612031848260208601611fca565b91505092915050565b60008060006060848603121561205357612052611b8c565b5b600084013567ffffffffffffffff81111561207157612070611b91565b5b61207d8682870161200c565b935050602084013567ffffffffffffffff81111561209e5761209d611b91565b5b6120aa8682870161200c565b925050604084013567ffffffffffffffff8111156120cb576120ca611b91565b5b6120d78682870161200c565b9150509250925092565b6000602082840312156120f7576120f6611b8c565b5b600061210584828501611dd9565b91505092915050565b61211781611c1b565b811461212257600080fd5b50565b6000813590506121348161210e565b92915050565b6000806040838503121561215157612150611b8c565b5b600061215f85828601611dd9565b925050602061217085828601612125565b9150509250929050565b600067ffffffffffffffff82111561219557612194611f0f565b5b61219e82611c97565b9050602081019050919050565b60006121be6121b98461217a565b611f6f565b9050828152602081018484840111156121da576121d9611f0a565b5b6121e5848285611fbb565b509392505050565b600082601f83011261220257612201611f05565b5b81356122128482602086016121ab565b91505092915050565b6000806000806080858703121561223557612234611b8c565b5b600061224387828801611dd9565b945050602061225487828801611dd9565b935050604061226587828801611d24565b925050606085013567ffffffffffffffff81111561228657612285611b91565b5b612292878288016121ed565b91505092959194509250565b600080604083850312156122b5576122b4611b8c565b5b60006122c385828601611dd9565b92505060206122d485828601611dd9565b9150509250929050565b7f4e487b7100000000000000000000000000000000000000000000000000000000600052602260045260246000fd5b6000600282049050600182168061232557607f821691505b602082108103612338576123376122de565b5b50919050565b7f4552433732313a20617070726f76616c20746f2063757272656e74206f776e6560008201527f7200000000000000000000000000000000000000000000000000000000000000602082015250565b600061239a602183611c5c565b91506123a58261233e565b604082019050919050565b600060208201905081810360008301526123c98161238d565b9050919050565b7f4552433732313a20617070726f76652063616c6c6572206973206e6f7420746f60008201527f6b656e206f776e6572206f7220617070726f76656420666f7220616c6c000000602082015250565b600061242c603d83611c5c565b9150612437826123d0565b604082019050919050565b6000602082019050818103600083015261245b8161241f565b9050919050565b7f546f6b656e20646f6573206e6f74206578697374000000000000000000000000600082015250565b6000612498601483611c5c565b91506124a382612462565b602082019050919050565b600060208201905081810360008301526124c78161248b565b9050919050565b7f4552433732313a2063616c6c6572206973206e6f7420746f6b656e206f776e6560008201527f72206f7220617070726f76656400000000000000000000000000000000000000602082015250565b600061252a602d83611c5c565b9150612535826124ce565b604082019050919050565b600060208201905081810360008301526125598161251d565b9050919050565b60008190508160005260206000209050919050565b60006020601f8301049050919050565b600082821b905092915050565b6000600883026125c27fffffffffffffffffffffffffffffffffffffffffffffffffffffffffffffffff82612585565b6125cc8683612585565b95508019841693508086168417925050509392505050565b6000819050919050565b60006126096126046125ff84611d03565b6125e4565b611d03565b9050919050565b6000819050919050565b612623836125ee565b61263761262f82612610565b848454612592565b825550505050565b600090565b61264c61263f565b61265781848461261a565b505050565b5b8181101561267b57612670600082612644565b60018101905061265d565b5050565b601f8211156126c05761269181612560565b61269a84612575565b810160208510156126a9578190505b6126bd6126b585612575565b83018261265c565b50505b505050565b600082821c905092915050565b60006126e3600019846008026126c5565b1980831691505092915050565b60006126fc83836126d2565b9150826002028217905092915050565b61271582611c51565b67ffffffffffffffff81111561272e5761272d611f0f565b5b612738825461230d565b61274382828561267f565b600060209050601f8311600181146127765760008415612764578287015190505b61276e85826126f0565b8655506127d6565b601f19841661278486612560565b60005b828110156127ac57848901518255600182019150602085019450602081019050612787565b868310156127c957848901516127c5601f8916826126d2565b8355505b6001600288020188555050505b505050505050565b7f4552433732313a20696e76616c696420746f6b656e2049440000000000000000600082015250565b6000612814601883611c5c565b915061281f826127de565b602082019050919050565b6000602082019050818103600083015261284381612807565b9050919050565b7f4552433732313a2061646472657373207a65726f206973206e6f74206120766160008201527f6c6964206f776e65720000000000000000000000000000000000000000000000602082015250565b60006128a6602983611c5c565b91506128b18261284a565b604082019050919050565b600060208201905081810360008301526128d581612899565b9050919050565b600081905092915050565b7f697066733a2f2f00000000000000000000000000000000000000000000000000600082015250565b600061291d6007836128dc565b9150612928826128e7565b600782019050919050565b600081546129408161230d565b61294a81866128dc565b94506001821660008114612965576001811461297a576129ad565b60ff19831686528115158202860193506129ad565b61298385612560565b60005b838110156129a557815481890152600182019150602081019050612986565b838801955050505b50505092915050565b60006129c182612910565b91506129cd8284612933565b915081905092915050565b7f4f776e61626c653a206e6577206f776e657220697320746865207a65726f206160008201527f6464726573730000000000000000000000000000000000000000000000000000602082015250565b6000612a34602683611c5c565b9150612a3f826129d8565b604082019050919050565b60006020820190508181036000830152612a6381612a27565b9050919050565b7f4552433732313a207472616e736665722066726f6d20696e636f72726563742060008201527f6f776e6572000000000000000000000000000000000000000000000000000000602082015250565b6000612ac6602583611c5c565b9150612ad182612a6a565b604082019050919050565b60006020820190508181036000830152612af581612ab9565b9050919050565b7f4552433732313a207472616e7366657220746f20746865207a65726f2061646460008201527f7265737300000000000000000000000000000000000000000000000000000000602082015250565b6000612b58602483611c5c565b9150612b6382612afc565b604082019050919050565b60006020820190508181036000830152612b8781612b4b565b9050919050565b7f4552433732313a206d696e7420746f20746865207a65726f2061646472657373600082015250565b6000612bc4602083611c5c565b9150612bcf82612b8e565b602082019050919050565b60006020820190508181036000830152612bf381612bb7565b9050919050565b7f4552433732313a20746f6b656e20616c7265616479206d696e74656400000000600082015250565b6000612c30601c83611c5c565b9150612c3b82612bfa565b602082019050919050565b60006020820190508181036000830152612c5f81612c23565b9050919050565b7f4f776e61626c653a2063616c6c6572206973206e6f7420746865206f776e6572600082015250565b6000612c9c602083611c5c565b9150612ca782612c66565b602082019050919050565b60006020820190508181036000830152612ccb81612c8f565b9050919050565b7f4552433732313a20617070726f766520746f2063616c6c657200000000000000600082015250565b6000612d08601983611c5c565b9150612d1382612cd2565b602082019050919050565b60006020820190508181036000830152612d3781612cfb565b9050919050565b7f4552433732313a207472616e7366657220746f206e6f6e20455243373231526560008201527f63656976657220696d706c656d656e7465720000000000000000000000000000602082015250565b6000612d9a603283611c5c565b9150612da582612d3e565b604082019050919050565b60006020820190508181036000830152612dc981612d8d565b9050919050565b600081519050919050565b600082825260208201905092915050565b6000612df782612dd0565b612e018185612ddb565b9350612e11818560208601611c6d565b612e1a81611c97565b840191505092915050565b6000608082019050612e3a6000830187611d98565b612e476020830186611d98565b612e546040830185611e88565b8181036060830152612e668184612dec565b905095945050505050565b600081519050612e8081611bc2565b92915050565b600060208284031215612e9c57612e9b611b8c565b5b6000612eaa84828501612e71565b9150509291505056fea264697066735822122068163d569280d69a3f01a55ed678b96bd657ac05d2f1da212d625cb25c2e5a0064736f6c634300081c0033",
  "linkReferences": {},
  "deployedLinkReferences": {}
}